{
  "_format": "hh-sol-artifact-1",
  "contractName": "TokenLocker",
  "sourceName": "contracts/Lock.sol",
  "abi": [
    {
      "anonymous": false,
      "inputs": [
        {
          "indexed": false,
          "internalType": "uint256",
          "name": "amount",
          "type": "uint256"
        },
        {
          "indexed": false,
          "internalType": "uint256",
          "name": "unlockTime",
          "type": "uint256"
        }
      ],
      "name": "Locking",
      "type": "event"
    },
    {
      "anonymous": false,
      "inputs": [
        {
          "indexed": true,
          "internalType": "address",
          "name": "previousOwner",
          "type": "address"
        },
        {
          "indexed": true,
          "internalType": "address",
          "name": "newOwner",
          "type": "address"
        }
      ],
      "name": "OwnershipTransferred",
      "type": "event"
    },
    {
      "anonymous": false,
      "inputs": [
        {
          "indexed": false,
          "internalType": "uint256",
          "name": "amount",
          "type": "uint256"
        },
        {
          "indexed": false,
          "internalType": "uint256",
          "name": "when",
          "type": "uint256"
        }
      ],
      "name": "Withdrawal",
      "type": "event"
    },
    {
      "inputs": [
        {
          "internalType": "address",
          "name": "",
          "type": "address"
        }
      ],
      "name": "erc20UnlockTime",
      "outputs": [
        {
          "internalType": "uint256",
          "name": "",
          "type": "uint256"
        }
      ],
      "stateMutability": "view",
      "type": "function"
    },
    {
      "inputs": [
        {
          "internalType": "address",
          "name": "",
          "type": "address"
        }
      ],
      "name": "ethUnlockTime",
      "outputs": [
        {
          "internalType": "uint256",
          "name": "",
          "type": "uint256"
        }
      ],
      "stateMutability": "view",
      "type": "function"
    },
    {
      "inputs": [
        {
          "internalType": "contract IERC20",
          "name": "token",
          "type": "address"
        },
        {
          "internalType": "uint256",
          "name": "amount",
          "type": "uint256"
        },
        {
          "internalType": "uint256",
          "name": "time",
          "type": "uint256"
        }
      ],
      "name": "lockERC20",
      "outputs": [],
      "stateMutability": "nonpayable",
      "type": "function"
    },
    {
      "inputs": [
        {
          "internalType": "uint256",
          "name": "time",
          "type": "uint256"
        }
      ],
      "name": "lockETH",
      "outputs": [],
      "stateMutability": "payable",
      "type": "function"
    },
    {
      "inputs": [
        {
          "internalType": "address",
          "name": "",
          "type": "address"
        }
      ],
      "name": "lockedERC20",
      "outputs": [
        {
          "internalType": "address",
          "name": "",
          "type": "address"
        }
      ],
      "stateMutability": "view",
      "type": "function"
    },
    {
      "inputs": [
        {
          "internalType": "address",
          "name": "",
          "type": "address"
        }
      ],
      "name": "lockedERC20Balance",
      "outputs": [
        {
          "internalType": "uint256",
          "name": "",
          "type": "uint256"
        }
      ],
      "stateMutability": "view",
      "type": "function"
    },
    {
      "inputs": [
        {
          "internalType": "address",
          "name": "",
          "type": "address"
        }
      ],
      "name": "lockedEthBalance",
      "outputs": [
        {
          "internalType": "uint256",
          "name": "",
          "type": "uint256"
        }
      ],
      "stateMutability": "view",
      "type": "function"
    },
    {
      "inputs": [],
      "name": "owner",
      "outputs": [
        {
          "internalType": "address",
          "name": "",
          "type": "address"
        }
      ],
      "stateMutability": "view",
      "type": "function"
    },
    {
      "inputs": [
        {
          "internalType": "bool",
          "name": "paused",
          "type": "bool"
        }
      ],
      "name": "pauseContract",
      "outputs": [],
      "stateMutability": "nonpayable",
      "type": "function"
    },
    {
      "inputs": [],
      "name": "renounceOwnership",
      "outputs": [],
      "stateMutability": "nonpayable",
      "type": "function"
    },
    {
      "inputs": [
        {
          "internalType": "contract IERC20",
          "name": "token",
          "type": "address"
        },
        {
          "internalType": "uint256",
          "name": "amount",
          "type": "uint256"
        }
      ],
      "name": "rugWithdraw",
      "outputs": [],
      "stateMutability": "nonpayable",
      "type": "function"
    },
    {
      "inputs": [
        {
          "internalType": "address",
          "name": "newOwner",
          "type": "address"
        }
      ],
      "name": "transferOwnership",
      "outputs": [],
      "stateMutability": "nonpayable",
      "type": "function"
    },
    {
      "inputs": [],
      "name": "withdrawERC20",
      "outputs": [],
      "stateMutability": "nonpayable",
      "type": "function"
    },
    {
      "inputs": [],
      "name": "withdrawETH",
      "outputs": [],
      "stateMutability": "nonpayable",
      "type": "function"
    }
  ],
  "bytecode": "0x608060405260008060146101000a81548160ff02191690831515021790555034801561002a57600080fd5b5061004761003c61004c60201b60201c565b61005460201b60201c565b610118565b600033905090565b60008060009054906101000a900473ffffffffffffffffffffffffffffffffffffffff169050816000806101000a81548173ffffffffffffffffffffffffffffffffffffffff021916908373ffffffffffffffffffffffffffffffffffffffff1602179055508173ffffffffffffffffffffffffffffffffffffffff168173ffffffffffffffffffffffffffffffffffffffff167f8be0079c531659141344cd1fd0a4f28419497f9722a3daafe3b4186f6b6457e060405160405180910390a35050565b611da9806101276000396000f3fe6080604052600436106100dd5760003560e01c8063e086e5ec1161007f578063f417a99c11610059578063f417a99c14610263578063f50df6cf146102a0578063f9672da2146102c9578063f9893d6414610306576100dd565b8063e086e5ec146101fa578063e272b89214610211578063f2fde38b1461023a576100dd565b8063715018a6116100bb578063715018a6146101735780638da5cb5b1461018a5780638eec6f7b146101b5578063cd274c81146101d1576100dd565b80631a6e8754146100e25780632ed6d5e81461011f578063601f9a6b14610136575b600080fd5b3480156100ee57600080fd5b50610109600480360381019061010491906113ff565b610343565b6040516101169190611445565b60405180910390f35b34801561012b57600080fd5b5061013461035b565b005b34801561014257600080fd5b5061015d600480360381019061015891906113ff565b61063e565b60405161016a9190611445565b60405180910390f35b34801561017f57600080fd5b50610188610656565b005b34801561019657600080fd5b5061019f61066a565b6040516101ac919061146f565b60405180910390f35b6101cf60048036038101906101ca91906114b6565b610693565b005b3480156101dd57600080fd5b506101f860048036038101906101f39190611521565b610883565b005b34801561020657600080fd5b5061020f610b5a565b005b34801561021d57600080fd5b50610238600480360381019061023391906115ac565b610d66565b005b34801561024657600080fd5b50610261600480360381019061025c91906113ff565b610d8b565b005b34801561026f57600080fd5b5061028a600480360381019061028591906113ff565b610e0e565b6040516102979190611445565b60405180910390f35b3480156102ac57600080fd5b506102c760048036038101906102c291906115d9565b610e26565b005b3480156102d557600080fd5b506102f060048036038101906102eb91906113ff565b610f01565b6040516102fd919061146f565b60405180910390f35b34801561031257600080fd5b5061032d600480360381019061032891906113ff565b610f34565b60405161033a9190611445565b60405180910390f35b60036020528060005260406000206000915090505481565b600560003373ffffffffffffffffffffffffffffffffffffffff1673ffffffffffffffffffffffffffffffffffffffff168152602001908152602001600020544210156103dd576040517f08c379a00000000000000000000000000000000000000000000000000000000081526004016103d490611676565b60405180910390fd5b6000600460003373ffffffffffffffffffffffffffffffffffffffff1673ffffffffffffffffffffffffffffffffffffffff16815260200190815260200160002060009054906101000a900473ffffffffffffffffffffffffffffffffffffffff1690508073ffffffffffffffffffffffffffffffffffffffff1663a9059cbb33600360003373ffffffffffffffffffffffffffffffffffffffff1673ffffffffffffffffffffffffffffffffffffffff168152602001908152602001600020546040518363ffffffff1660e01b81526004016104bb929190611696565b6020604051808303816000875af11580156104da573d6000803e3d6000fd5b505050506040513d601f19601f820116820180604052508101906104fe91906116d4565b506000600560003373ffffffffffffffffffffffffffffffffffffffff1673ffffffffffffffffffffffffffffffffffffffff168152602001908152602001600020819055506000600460003373ffffffffffffffffffffffffffffffffffffffff1673ffffffffffffffffffffffffffffffffffffffff16815260200190815260200160002060006101000a81548173ffffffffffffffffffffffffffffffffffffffff021916908373ffffffffffffffffffffffffffffffffffffffff1602179055507fbf2ed60bd5b5965d685680c01195c9514e4382e28e3a5a2d2d5244bf59411b93600360003373ffffffffffffffffffffffffffffffffffffffff1673ffffffffffffffffffffffffffffffffffffffff1681526020019081526020016000205442604051610633929190611701565b60405180910390a150565b60016020528060005260406000206000915090505481565b61065e610f4c565b6106686000610fca565b565b60008060009054906101000a900473ffffffffffffffffffffffffffffffffffffffff16905090565b60001515600060149054906101000a900460ff161515146106e9576040517f08c379a00000000000000000000000000000000000000000000000000000000081526004016106e090611776565b60405180910390fd5b80421061072b576040517f08c379a000000000000000000000000000000000000000000000000000000000815260040161072290611808565b60405180910390fd5b600260003373ffffffffffffffffffffffffffffffffffffffff1673ffffffffffffffffffffffffffffffffffffffff168152602001908152602001600020548110156107ad576040517f08c379a00000000000000000000000000000000000000000000000000000000081526004016107a4906118c0565b60405180910390fd5b80600260003373ffffffffffffffffffffffffffffffffffffffff1673ffffffffffffffffffffffffffffffffffffffff1681526020019081526020016000208190555034600160003373ffffffffffffffffffffffffffffffffffffffff1673ffffffffffffffffffffffffffffffffffffffff1681526020019081526020016000206000828254610840919061190f565b925050819055507f32c5ef081a1d718a6af51b9bdb01f9c6a2ebd0053dae5b84da61816839c2aada3482604051610878929190611701565b60405180910390a150565b60001515600060149054906101000a900460ff161515146108d9576040517f08c379a00000000000000000000000000000000000000000000000000000000081526004016108d090611776565b60405180910390fd5b600073ffffffffffffffffffffffffffffffffffffffff16600460003373ffffffffffffffffffffffffffffffffffffffff1673ffffffffffffffffffffffffffffffffffffffff16815260200190815260200160002060009054906101000a900473ffffffffffffffffffffffffffffffffffffffff1673ffffffffffffffffffffffffffffffffffffffff16146109a7576040517f08c379a000000000000000000000000000000000000000000000000000000000815260040161099e9061198f565b60405180910390fd5b8042106109e9576040517f08c379a00000000000000000000000000000000000000000000000000000000081526004016109e090611808565b60405180910390fd5b81600360003373ffffffffffffffffffffffffffffffffffffffff1673ffffffffffffffffffffffffffffffffffffffff1681526020019081526020016000208190555080600560003373ffffffffffffffffffffffffffffffffffffffff1673ffffffffffffffffffffffffffffffffffffffff1681526020019081526020016000208190555082600460003373ffffffffffffffffffffffffffffffffffffffff1673ffffffffffffffffffffffffffffffffffffffff16815260200190815260200160002060006101000a81548173ffffffffffffffffffffffffffffffffffffffff021916908373ffffffffffffffffffffffffffffffffffffffff160217905550610b1c3330848673ffffffffffffffffffffffffffffffffffffffff1661108e909392919063ffffffff16565b7f32c5ef081a1d718a6af51b9bdb01f9c6a2ebd0053dae5b84da61816839c2aada8282604051610b4d929190611701565b60405180910390a1505050565b600260003373ffffffffffffffffffffffffffffffffffffffff1673ffffffffffffffffffffffffffffffffffffffff16815260200190815260200160002054421015610bdc576040517f08c379a0000000000000000000000000000000000000000000000000000000008152600401610bd390611676565b60405180910390fd5b3373ffffffffffffffffffffffffffffffffffffffff166108fc600160003373ffffffffffffffffffffffffffffffffffffffff1673ffffffffffffffffffffffffffffffffffffffff168152602001908152602001600020549081150290604051600060405180830381858888f19350505050158015610c61573d6000803e3d6000fd5b506000600160003373ffffffffffffffffffffffffffffffffffffffff1673ffffffffffffffffffffffffffffffffffffffff168152602001908152602001600020819055506000600260003373ffffffffffffffffffffffffffffffffffffffff1673ffffffffffffffffffffffffffffffffffffffff168152602001908152602001600020819055507fbf2ed60bd5b5965d685680c01195c9514e4382e28e3a5a2d2d5244bf59411b93600160003373ffffffffffffffffffffffffffffffffffffffff1673ffffffffffffffffffffffffffffffffffffffff1681526020019081526020016000205442604051610d5c929190611701565b60405180910390a1565b610d6e610f4c565b80600060146101000a81548160ff02191690831515021790555050565b610d93610f4c565b600073ffffffffffffffffffffffffffffffffffffffff168173ffffffffffffffffffffffffffffffffffffffff1603610e02576040517f08c379a0000000000000000000000000000000000000000000000000000000008152600401610df990611a21565b60405180910390fd5b610e0b81610fca565b50565b60026020528060005260406000206000915090505481565b610e2e610f4c565b60004714610e7e573373ffffffffffffffffffffffffffffffffffffffff166108fc479081150290604051600060405180830381858888f19350505050158015610e7c573d6000803e3d6000fd5b505b8173ffffffffffffffffffffffffffffffffffffffff1663a9059cbb33836040518363ffffffff1660e01b8152600401610eb9929190611696565b6020604051808303816000875af1158015610ed8573d6000803e3d6000fd5b505050506040513d601f19601f82011682018060405250810190610efc91906116d4565b505050565b60046020528060005260406000206000915054906101000a900473ffffffffffffffffffffffffffffffffffffffff1681565b60056020528060005260406000206000915090505481565b610f54611117565b73ffffffffffffffffffffffffffffffffffffffff16610f7261066a565b73ffffffffffffffffffffffffffffffffffffffff1614610fc8576040517f08c379a0000000000000000000000000000000000000000000000000000000008152600401610fbf90611a8d565b60405180910390fd5b565b60008060009054906101000a900473ffffffffffffffffffffffffffffffffffffffff169050816000806101000a81548173ffffffffffffffffffffffffffffffffffffffff021916908373ffffffffffffffffffffffffffffffffffffffff1602179055508173ffffffffffffffffffffffffffffffffffffffff168173ffffffffffffffffffffffffffffffffffffffff167f8be0079c531659141344cd1fd0a4f28419497f9722a3daafe3b4186f6b6457e060405160405180910390a35050565b611111846323b872dd60e01b8585856040516024016110af93929190611aad565b604051602081830303815290604052907bffffffffffffffffffffffffffffffffffffffffffffffffffffffff19166020820180517bffffffffffffffffffffffffffffffffffffffffffffffffffffffff838183161783525050505061111f565b50505050565b600033905090565b6000611181826040518060400160405280602081526020017f5361666545524332303a206c6f772d6c6576656c2063616c6c206661696c65648152508573ffffffffffffffffffffffffffffffffffffffff166111e69092919063ffffffff16565b90506000815111156111e157808060200190518101906111a191906116d4565b6111e0576040517f08c379a00000000000000000000000000000000000000000000000000000000081526004016111d790611b56565b60405180910390fd5b5b505050565b60606111f584846000856111fe565b90509392505050565b606082471015611243576040517f08c379a000000000000000000000000000000000000000000000000000000000815260040161123a90611be8565b60405180910390fd5b61124c85611312565b61128b576040517f08c379a000000000000000000000000000000000000000000000000000000000815260040161128290611c54565b60405180910390fd5b6000808673ffffffffffffffffffffffffffffffffffffffff1685876040516112b49190611ce5565b60006040518083038185875af1925050503d80600081146112f1576040519150601f19603f3d011682016040523d82523d6000602084013e6112f6565b606091505b5091509150611306828286611335565b92505050949350505050565b6000808273ffffffffffffffffffffffffffffffffffffffff163b119050919050565b6060831561134557829050611395565b6000835111156113585782518084602001fd5b816040517f08c379a000000000000000000000000000000000000000000000000000000000815260040161138c9190611d51565b60405180910390fd5b9392505050565b600080fd5b600073ffffffffffffffffffffffffffffffffffffffff82169050919050565b60006113cc826113a1565b9050919050565b6113dc816113c1565b81146113e757600080fd5b50565b6000813590506113f9816113d3565b92915050565b6000602082840312156114155761141461139c565b5b6000611423848285016113ea565b91505092915050565b6000819050919050565b61143f8161142c565b82525050565b600060208201905061145a6000830184611436565b92915050565b611469816113c1565b82525050565b60006020820190506114846000830184611460565b92915050565b6114938161142c565b811461149e57600080fd5b50565b6000813590506114b08161148a565b92915050565b6000602082840312156114cc576114cb61139c565b5b60006114da848285016114a1565b91505092915050565b60006114ee826113c1565b9050919050565b6114fe816114e3565b811461150957600080fd5b50565b60008135905061151b816114f5565b92915050565b60008060006060848603121561153a5761153961139c565b5b60006115488682870161150c565b9350506020611559868287016114a1565b925050604061156a868287016114a1565b9150509250925092565b60008115159050919050565b61158981611574565b811461159457600080fd5b50565b6000813590506115a681611580565b92915050565b6000602082840312156115c2576115c161139c565b5b60006115d084828501611597565b91505092915050565b600080604083850312156115f0576115ef61139c565b5b60006115fe8582860161150c565b925050602061160f858286016114a1565b9150509250929050565b600082825260208201905092915050565b7f596f752063616e27742077697468647261772079657400000000000000000000600082015250565b6000611660601683611619565b915061166b8261162a565b602082019050919050565b6000602082019050818103600083015261168f81611653565b9050919050565b60006040820190506116ab6000830185611460565b6116b86020830184611436565b9392505050565b6000815190506116ce81611580565b92915050565b6000602082840312156116ea576116e961139c565b5b60006116f8848285016116bf565b91505092915050565b60006040820190506117166000830185611436565b6117236020830184611436565b9392505050565b7f436f6e74726163742069732063757272656e746c792070617573656400000000600082015250565b6000611760601c83611619565b915061176b8261172a565b602082019050919050565b6000602082019050818103600083015261178f81611753565b9050919050565b7f556e6c6f636b2074696d652073686f756c6420626520696e207468652066757460008201527f7572650000000000000000000000000000000000000000000000000000000000602082015250565b60006117f2602383611619565b91506117fd82611796565b604082019050919050565b60006020820190508181036000830152611821816117e5565b9050919050565b7f556e6c6f636b2074696d6520666f72206e6577206c6f636b696e672073686f7560008201527f6c6420626520657175616c206f72206772656174657220746f2063757272656e60208201527f74206f6e65000000000000000000000000000000000000000000000000000000604082015250565b60006118aa604583611619565b91506118b582611828565b606082019050919050565b600060208201905081810360008301526118d98161189d565b9050919050565b7f4e487b7100000000000000000000000000000000000000000000000000000000600052601160045260246000fd5b600061191a8261142c565b91506119258361142c565b925082820190508082111561193d5761193c6118e0565b5b92915050565b7f4120455243323020746f6b656e20697320616c7265616479206c6f636b656400600082015250565b6000611979601f83611619565b915061198482611943565b602082019050919050565b600060208201905081810360008301526119a88161196c565b9050919050565b7f4f776e61626c653a206e6577206f776e657220697320746865207a65726f206160008201527f6464726573730000000000000000000000000000000000000000000000000000602082015250565b6000611a0b602683611619565b9150611a16826119af565b604082019050919050565b60006020820190508181036000830152611a3a816119fe565b9050919050565b7f4f776e61626c653a2063616c6c6572206973206e6f7420746865206f776e6572600082015250565b6000611a77602083611619565b9150611a8282611a41565b602082019050919050565b60006020820190508181036000830152611aa681611a6a565b9050919050565b6000606082019050611ac26000830186611460565b611acf6020830185611460565b611adc6040830184611436565b949350505050565b7f5361666545524332303a204552433230206f7065726174696f6e20646964206e60008201527f6f74207375636365656400000000000000000000000000000000000000000000602082015250565b6000611b40602a83611619565b9150611b4b82611ae4565b604082019050919050565b60006020820190508181036000830152611b6f81611b33565b9050919050565b7f416464726573733a20696e73756666696369656e742062616c616e636520666f60008201527f722063616c6c0000000000000000000000000000000000000000000000000000602082015250565b6000611bd2602683611619565b9150611bdd82611b76565b604082019050919050565b60006020820190508181036000830152611c0181611bc5565b9050919050565b7f416464726573733a2063616c6c20746f206e6f6e2d636f6e7472616374000000600082015250565b6000611c3e601d83611619565b9150611c4982611c08565b602082019050919050565b60006020820190508181036000830152611c6d81611c31565b9050919050565b600081519050919050565b600081905092915050565b60005b83811015611ca8578082015181840152602081019050611c8d565b60008484015250505050565b6000611cbf82611c74565b611cc98185611c7f565b9350611cd9818560208601611c8a565b80840191505092915050565b6000611cf18284611cb4565b915081905092915050565b600081519050919050565b6000601f19601f8301169050919050565b6000611d2382611cfc565b611d2d8185611619565b9350611d3d818560208601611c8a565b611d4681611d07565b840191505092915050565b60006020820190508181036000830152611d6b8184611d18565b90509291505056fea2646970667358221220502a80ae9ae455c3a4b81b1a06a31f98d11675a6dc6a3eb858e49464191c8c1464736f6c63430008110033",
  "linkReferences": {},
  "deployedLinkReferences": {}
}